:0400000007EF00F016
:100008005D820DED15F046EF13F072EC16F0000E60
:100018000101786F010E776F21EEB0F011EE00F05C
:10002800090EDBCFE3FFE806FCE2000E076E010EC7
:10003800086E850E096E73EC14F0000E0101676FEF
:10004800000E686F000E696F000E6A6F000E136F66
:10005800000E126F000E676F000E686F000E696F5A
:10006800000E6A6F6A510DE1A00E675D860E685931
:10007800010E6959D8A043EF00F045EF00F047EFB3
:1000880000F05CEF00F0010E6727000E682369237B
:100098006A236A510DE1A00E675D860E6859010E4C
:1000A8006959D8A05AEF00F05CEF00F047EF00F074
:1000B800000EA66F000EA56F000E0B6F000E0A6FE4
:1000C800000E316F000E306F000E0D6F020E0C6FB8
:1000D800EE0E076E2F0E086EC90E096E73EC14F043
:1000E800000E0101846F000E836F84BF85EF00F05E
:1000F800845109E1040E835DD8A085EF00F087EFF5
:1001080000F089EF00F099EF00F0F20E8325D96E28
:10011800010E8421DA6E8351C80F01EC16F0DF6EF0
:100128000101834B842B79EF00F0000E9C6F000EC9
:100138009B6F21EE16F0040EDE6AE806FDE2000E63
:100148006C6F030E6B6F000E336F000E326F000E74
:10015800926F000E916F000E946F000E936F000E59
:100168007A6F000E796F000EAF6F000EAE6F000E43
:100178007C6F000E7B6F000E356F000E346F000E23
:10018800566F010E556F000E0F6F010E0E6F000EA9
:10019800396F000E386F000E9E6F000E9D6F000EB7
:1001A800A06F000E9F6F21EE1BF0040EDE6AE806BA
:1001B800FDE221EE50F0040EDE6AE806FDE2000ED4
:1001C8003B6F000E3A6F000E586F000E576F000E0F
:1001D800A46F000EA36F000E5A6F010E596F000E28
:1001E8007E6F000E7D6F000E666F000E656F000E4D
:1001F800116F000E106F000E156F000E146F000EB9
:10020800866F000E856F88EC13F051C087F152C0DD
:1002180088F154C089F155C08AF157C08BF158C094
:100228008CF14F0E01018D6F4E0E8E6F300E8F6F59
:10023800300E906F000E706F000E6F6F70BF2EEF54
:1002480001F0705109E10A0E6F5DD8A02EEF01F0A0
:1002580030EF01F032EF01F054EF01F0870E6F2517
:10026800D96E010E7021DA6EDF50016EEF51E9ECA4
:1002780015F00101EF4BF02B640EEF19F011D8A423
:1002880048EF01F04AEF01F050EF01F0010EF16F75
:10029800000EF06F000EEF6F6F4B702B22EF01F026
:1002A800010EC8EC13F0396E39500101AC6FAD6B1B
:1002B80088EC13F0070E0101A519A611D8A467EF61
:1002C80001F069EF01F083EF01F0020EAC19AD11F6
:1002D800D8B471EF01F073EF01F07DEF01F0030E78
:1002E800AC19AD11D8A47BEF01F07DEF01F083EFDD
:1002F80001F0000EA66F020EA56FCBEF01F0020E03
:10030800AC19AD11D8A48BEF01F08DEF01F09FEF80
:1003180001F0A6BF9BEF01F0A65107E1060EA55D0F
:10032800D8B099EF01F09BEF01F09FEF01F0A54BDA
:10033800A62BCBEF01F0030EAC19AD11D8A4A7EF93
:1003480001F0A9EF01F0BCEF01F0A6BFB5EF01F095
:10035800A65109E1020EA55DD8A0B5EF01F0B7EFEF
:1003680001F0BCEF01F0A507D8A0A607CBEF01F07C
:10037800AC05AD11D8A4C3EF01F0C5EF01F0CBEF88
:1003880001F0000EA66F070EA56FCBEF01F03051FC
:10039800A51909E13151A619D8B4D5EF01F0D7EF65
:1003A80001F05BEF02F051C087F152C088F154C0F0
:1003B80089F155C08AF157C08BF158C08CF1A5C19D
:1003C80001F0A6C102F0000E046E030E036E40ECAD
:1003D80016F0BC0E0124D96E010E0220DA6EDF5031
:1003E80001018D6FA5C101F0A6C102F0000E046ED7
:1003F800030E036E40EC16F0BD0E0124D96E010EFB
:100408000220DA6EDF5001018E6FA1C101F0A2C196
:1004180002F0000E046E0A0E036E03EC14F0015095
:10042800300F01018F6FA1C101F0A2C102F0000ECF
:10043800046E0A0E036EDBEC14F00150300F01015C
:10044800906F000E726F000E716F72BF35EF02F081
:10045800725109E10A0E715DD8A035EF02F037EF4D
:1004680002F039EF02F05BEF02F0870E7125D96ECA
:10047800010E7221DA6EDF50016EEF51E9EC15F0D2
:100488000101EF4BF02B640EEF19F011D8A44FEFD8
:1004980002F051EF02F057EF02F0010EF16F000E7B
:1004A800F06F000EEF6F714B722B29EF02F0A5C1B0
:1004B80030F1A6C131F15AEF0EF088EC13F0C8EC18
:1004C80016F0A5C101F0A6C102F0000E046E030EDD
:1004D800036E40EC16F0BC0E0124076E010E0220DC
:1004E800086EC90E096E73EC14F0D50E076E2F0E48
:1004F800086E800E096E73EC14F0F30E076E2F0E63
:10050800086E890E096E73EC14F0F80E076E2F0E44
:10051800086E8D0E096E73EC14F0AE0E1A6E470E4F
:100528001B6E250E1C6E410E1D6E040E34EC15F06C
:1005380001C008F002C009F00A6A0B6A000E57EC05
:1005480010F008C016F009C017F00AC018F00BC068
:1005580019F08AEC0EF016C02FF017C030F018C052
:1005680031F019C032F0B5EC11F02FC0A1F130C054
:10057800A2F10101A25107E1640EA15DD8B0C7EF55
:1005880002F0C9EF02F0E9EF02F0CD0E0F6EA1C143
:1005980001F0A2C102F0000E046E0A0E036E03EC15
:1005A80014F00150300F80EC16F0CE0E0F6EA1C182
:1005B80001F0A2C102F0000E046E0A0E036EDBEC1D
:1005C80014F00150300F80EC16F0CF0E0F6E200E95
:1005D80080EC16F0050E0101AC19AD11D8A4F7EFA7
:1005E80002F0F9EF02F054EF01F0000E786F020EFE
:1005F800776F000E136F000E126F010E076E2F0E2D
:10060800086EC00E096E73EC14F054EF01F0574BEE
:10061800582BB10E571907E1040E5819D8A417EF33
:1006280003F019EF03F01FEF03F0000E786F010ECF
:10063800776F2CEF03F0AC29AD11D8B426EF03F097
:1006480028EF03F02CEF03F0000E586F000E576FE1
:10065800C80E01EC16F00101F26FC90E01EC16F09C
:100668000101F36FCA0E01EC16F00101F46FCB0E15
:1006780001EC16F00101F56F9CBF4EEF03F09C51A1
:1006880007E1040E9B5DD8B04CEF03F04EEF03F08A
:100698008EEF03F0560E076E2F0E086E800E096E51
:1006A80073EC14F0050E0101AC19AD11D8A45FEF7D
:1006B80003F061EF03F074EF03F0160E9B25D96E7B
:1006C800010E9C21DA6E310EDF6E9B51C40F0F6E46
:1006D8002A0E80EC16F001019B4B9C2B54EF01F085
:1006E800060EAC19AD11D8A47CEF03F07EEF03F031
:1006F80054EF01F0160E9B25D96E010E9C21DA6E7F
:10070800300EDF6E9B51C40F0F6E2A0E80EC16F070
:100718006FEF03F0160E016E010E026EF20E036EFD
:10072800010E046E3DEC14F001500210D8A49FEFA6
:1007380003F0A1EF03F0ACEF03F0000E0101786FB6
:10074800030E776F000E9C6F000E9B6F54EF01F045
:1007580001016CBFB9EF03F06C5109E1020E6B5D4A
:10076800D8A0B9EF03F0BBEF03F0F7EF03F0000EEA
:10077800586F000E576F450E076E2F0E086E800ECD
:10078800096E73EC14F0C80E076E2F0E086EC30EB8
:10079800096E73EC14F0C00E0F6E01016B512F0F30
:1007A80080EC16F00101324B332BE90E321907E1C8
:1007B800030E3319D8A4E3EF03F0E5EF03F054EF89
:1007C80001F06B07D8A06C07000E336F000E326F74
:1007D80032C19BF133C19CF1000E016E010E99EC00
:1007E80015F054EF01F0000E586F000E576F9A0E77
:1007F800076E2F0E086E800E096E73EC14F0DF0E74
:10080800076E2F0E086EC00E096E73EC14F0CA0E38
:100818000F6EBAC109F0BBC10AF0000E0C6E0A0EC9
:100828000B6E9AEC12F00950300F80EC16F0C90EDE
:100838000F6E000E046E0A0E036EBAC101F0BBC142
:1008480002F038EC12F001C009F002C00AF0000E04
:100858000C6E0A0E0B6E9AEC12F00950300F80ECF9
:1008680016F0000E046E0A0E036EBAC101F0BBC189
:1008780002F038EC12F001C02EF102C02FF1C80EC0
:100888000F6E2EC101F02FC102F0000E046E0A0E89
:10089800036E38EC12F00150300F80EC16F0E80EC1
:1008A800076E2F0E086ECB0E096E73EC14F0F28AE9
:1008B800F28CF28E0101BA51BB11D8A466EF04F094
:1008C80068EF04F054EF01F0F29AF29EF29C000EE9
:1008D8009C6F000E9B6F000E6C6F030E6B6F000E0B
:1008E800BB6F780EBA6F010E076E2F0E086EC00E22
:1008F800096E73EC14F054EF01F09151140DF3509C
:10090800600F396E39C007F0086A820E096E73EC01
:1009180014F001019151140DF350740F396E39C060
:1009280007F0086AC20E096E73EC14F0000EC8ECEA
:1009380013F0396E395001017F6F806B7F29801168
:10094800D8B4A9EF04F0ABEF04F0F6EF04F0794B5C
:100958007A2B7FC15BF180C15CF1E80E791907E160
:10096800030E7A19D8A4BBEF04F0BDEF04F069EFC9
:1009780005F0000E7A6F000E796F050E7F19801151
:10098800D8A4C9EF04F0CBEF04F0DFEF04F0000EB9
:10099800016E010E99EC15F0010193519125396E04
:1009A800945192213A6E040E3924776F000E3A2042
:1009B800786F69EF05F0060E7F198011D8A4E7EF6C
:1009C80004F0E9EF04F0F4EF04F0000E786F010E84
:1009D800776F000E016E010E99EC15F069EF05F0C6
:1009E80069EF05F07ABF04EF05F0E80E795D030EB4
:1009F8007A59D8B002EF05F004EF05F069EF05F079
:100A08007ABF0FEF05F07A5108E17905D8A00FEF0A
:100A180005F011EF05F069EF05F0000E7A6F000E92
:100A2800796F060E5B195C11D8A41DEF05F01FEF56
:100A380005F040EF05F093519411D8A426EF05F086
:100A480028EF05F02EEF05F0000E946F010E936F5E
:100A580069EF05F092BF3CEF05F0925107E1030EF4
:100A6800915DD8B03AEF05F03CEF05F0F4EF04F0F3
:100A7800914B922B69EF05F0050E5B195C11D8A418
:100A880048EF05F04AEF05F069EF05F0930594117A
:100A9800D8A451EF05F053EF05F059EF05F0000E1B
:100AA800946F000E936F69EF05F092BF64EF05F045
:100AB800925108E19105D8A064EF05F066EF05F0C2
:100AC80069EF05F09107D8A092070101935194119D
:100AD800D8A471EF05F073EF05F085EF05F0FC0E73
:100AE800076E2F0E086E800E096E73EC14F00F0E51
:100AF800076E2F0E086EC00E096E73EC14F054EFDB
:100B080001F093059411D8A48CEF05F08EEF05F051
:100B180054EF01F00F0E076E2F0E086E800E096E4F
:100B280073EC14F0FC0E076E2F0E086EC00E096EE3
:100B380073EC14F054EF01F0000EA96F000EC8EC2E
:100B480013F0396E395001016D6F6E6B6D296E119E
:100B5800D8B4B1EF05F0B3EF05F0DBEF05F07B4B50
:100B68007C2B6DC15DF16EC15EF1E80E7B1907E16A
:100B7800030E7C19D8A4C3EF05F0C5EF05F067EFA5
:100B880006F0000E7C6F000E7B6F060E6D196E115D
:100B9800D8A4D1EF05F0D3EF05F067EF06F0000E0B
:100BA800786F030E776F67EF06F067EF06F07CBF8C
:100BB800E9EF05F0E80E7B5D030E7C59D8B0E7EF4E
:100BC80005F0E9EF05F067EF06F07CBFF4EF05F0FC
:100BD8007C5108E17B05D8A0F4EF05F0F6EF05F0AD
:100BE80067EF06F0000E7C6F000E7B6F050E5D1937
:100BF8005E11D8A402EF06F004EF06F04DEF06F000
:100C0800F151D8A40AEF06F00CEF06F030EF06F029
:100C1800EFC101F0F0C102F0000E046E0A0E036E7F
:100C280038EC12F0FF0E0124396EFF0E02203A6EE6
:100C380039500101AE5DAF51800A3B6E3A50800ACF
:100C48003B58D8B02AEF06F02CEF06F0D9EF05F0A4
:100C5800AE4BAF2B67EF06F0EFC101F0F0C102F029
:100C6800000E046E0A0E036E38EC12F001500101FA
:100C7800A96FAFBF4BEF06F0AF5107E1090EAE5DAC
:100C8800D8B049EF06F04BEF06F0D9EF05F02CEF9E
:100C980006F0060E5D195E11D8A455EF06F057EF61
:100CA80006F067EF06F0AFBF62EF06F0AF5108E15C
:100CB800AE05D8A062EF06F064EF06F067EF06F025
:100CC800AE07D8A0AF07A951AE25096E000EAF2117
:100CD8000A6E000E0C6E0A0E0B6E9AEC12F009509A
:100CE8000A0DF350ADEC16F001013C6FA951AE2589
:100CF800096E000EAF210A6E000E0C6E0A0E0B6E06
:100D08009AEC12F009500A0DF328ADEC16F0010127
:100D18003D6FA951AE25096E000EAF210A6E000E77
:100D28000C6E0A0E0B6E9AEC12F009500A0DF35075
:100D3800020FADEC16F001013E6FA951AE25096E08
:100D4800000EAF210A6E000E0C6E0A0E0B6E9AECA6
:100D580012F009500A0DF350030FADEC16F0010123
:100D68003F6FA951AE25096E000EAF210A6E000E25
:100D78000C6E0A0E0B6E9AEC12F009500A0DF35025
:100D8800040FADEC16F00101406FA951AE25096EB4
:100D9800000EAF210A6E000E0C6E0A0E0B6E9AEC56
:100DA80012F009500A0DF350050FADEC16F00101D1
:100DB800416FA951AE25096E000EAF210A6E000ED3
:100DC8000C6E0A0E0B6E9AEC12F009500A0DF350D5
:100DD800060FADEC16F00101426FA951AE25096E60
:100DE800000EAF210A6E000E0C6E0A0E0B6E9AEC06
:100DF80012F009500A0DF350070FADEC16F001017F
:100E0800436FA951AE25096E000EAF210A6E000E80
:100E18000C6E0A0E0B6E9AEC12F009500A0DF35084
:100E2800080FADEC16F00101446FA951AE25096E0B
:100E3800000EAF210A6E000E0C6E0A0E0B6E9AECB5
:100E480012F009500A0DF350090FADEC16F001012C
:100E5800456F890E076E2F0E086E800E096E73ECB3
:100E680014F0C00E0F6E0101AE51300F80EC16F079
:100E7800C10E0F6E200E80EC16F0C20E0F6E01012F
:100E88003C5180EC16F0C30E0F6E01013D5180EC11
:100E980016F0C40E0F6E3A0E80EC16F0C50E0F6EEB
:100EA80001013E5180EC16F0C60E0F6E01013F5154
:100EB80080EC16F0C70E0F6E3A0E80EC16F0C80ED6
:100EC8000F6E0101405180EC16F0C90E0F6E010142
:100ED800415180EC16F0CA0E0F6E200E80EC16F011
:100EE800CB0E0F6E0101425180EC16F0CC0E0F6E46
:100EF8000101435180EC16F0CD0E0F6E200E80ECF0
:100F080016F0CE0E0F6E0101445180EC16F0CF0E94
:100F18000F6E0101455180EC16F054EF01F0555168
:100F28005611D8B49AEF07F09CEF07F000EF08F0DD
:100F38005507D8A05607000EF06F000EEF6F000E91
:100F4800F16F780E076E2F0E086E800E096E73EC27
:100F580014F0EF0E076E2E0E086EC00E096E73ECBD
:100F680014F0300E0101876F300E886F300E896FD4
:100F7800300E8A6F300E8B6F300E8C6F430E8D6F74
:100F88004C0E8E6F300E8F6F300E906F000E746F98
:100F9800000E736F74BFDAEF07F0745109E10A0E9F
:100FA800735DD8A0DAEF07F0DCEF07F0DEEF07F0AB
:100FB80000EF08F0870E7325D96E010E7421DA6EE2
:100FC800DF50016EEF51E9EC15F00101EF4BF02B0A
:100FD800640EEF19F011D8A4F4EF07F0F6EF07F05C
:100FE800FCEF07F0010EF16F000EF06F000EEF6FCF
:100FF800734B742BCEEF07F0344B352B210E34197D
:1010080007E14E0E3519D8A40CEF08F00EEF08F0E2
:1010180054EF01F0000EF06F000EEF6F000EF16F4D
:10102800000EAF6F000EAE6F000E786F030E776F75
:10103800000E356F000E346F000E566F010E556F9F
:1010480054EF01F016EC16F0C70E076E2E0E086E60
:10105800800E096E73EC14F0DB0E076E2E0E086E10
:10106800C00E096E73EC14F00101384B392BE90EF0
:10107800381907E1030E3919D8A445EF08F047EFEE
:1010880008F054EF01F0AF0E026E2E0E036EB6ECB0
:1010980015F051C087F152C088F154C089F155C08C
:1010A8008AF157C08BF158C08CF1440E01018D6F45
:1010B8004C0E8E6FA1C101F0A2C102F0000E046EA9
:1010C8000A0E036E03EC14F00150300F01018F6F0C
:1010D800A1C101F0A2C102F0000E046E0A0E036E57
:1010E800DBEC14F00150300F0101906F000E766FA9
:1010F800000E756F76BF8AEF08F0765109E10A0E87
:10110800755DD8A08AEF08F08CEF08F08EEF08F034
:10111800B0EF08F0870E7525D96E010E7621DA6ECC
:10112800DF50016EEF51E9EC15F00101EF4BF02BA8
:10113800640EEF19F011D8A4A4EF08F0A6EF08F098
:10114800ACEF08F0010EF16F000EF06F000EEF6FBC
:10115800754B762B7EEF08F0F151D8A4B6EF08F066
:10116800B8EF08F0CCEF08F0000EA86F000EA76FDC
:10117800EFC101F0F0C102F0000E046E0A0E036E1A
:1011880038EC12F001C036F102C037F1DFEF08F099
:10119800EFC101F0F0C102F0000E046E0A0E036EFA
:1011A80038EC12F001C0A7F102C0A8F1000E01014D
:1011B800376F0A0E366F950E026E2E0E036EB6EC62
:1011C80015F0000E0101AB6F000EAA6F15EF0AF0C3
:1011D800A751AA25096EA851AB210A6E000E0C6E04
:1011E8000A0E0B6E9AEC12F009500A0DF350ADEC92
:1011F80016F00101466FA751AA25096EA851AB2127
:101208000A6E000E0C6E0A0E0B6E9AEC12F0095064
:101218000A0DF328ADEC16F00101476FA751AA2576
:10122800096EA851AB210A6E000E0C6E0A0E0B6EE9
:101238009AEC12F009500A0DF350020FADEC16F0BB
:101248000101486FA751AA25096EA851AB210A6E62
:10125800000E0C6E0A0E0B6E9AEC12F009500A0D75
:10126800F350030FADEC16F00101496FA751AA2501
:10127800096EA851AB210A6E000E0C6E0A0E0B6E99
:101288009AEC12F009500A0DF350040FADEC16F069
:1012980001014A6FA751AA25096EA851AB210A6E10
:1012A800000E0C6E0A0E0B6E9AEC12F009500A0D25
:1012B800F350050FADEC16F001014B6FA751AA25AD
:1012C800096EA851AB210A6E000E0C6E0A0E0B6E49
:1012D8009AEC12F009500A0DF350060FADEC16F017
:1012E80001014C6FA751AA25096EA851AB210A6EBE
:1012F800000E0C6E0A0E0B6E9AEC12F009500A0DD5
:10130800F350070FADEC16F001014D6FA751AA2558
:10131800096EA851AB210A6E000E0C6E0A0E0B6EF8
:101328009AEC12F009500A0DF350080FADEC16F0C4
:1013380001014E6FA751AA25096EA851AB210A6E6B
:10134800000E0C6E0A0E0B6E9AEC12F009500A0D84
:10135800F350090FADEC16F001014F6F200E8CEC25
:1013680016F00101AA51300F8CEC16F0200E8CEC0F
:1013780016F0200E8CEC16F0200E8CEC16F0200ED9
:101388008CEC16F0010146518CEC16F00101475126
:101398008CEC16F03A0E8CEC16F0010148518CECEE
:1013A80016F0010149518CEC16F03A0E8CEC16F04F
:1013B80001014A518CEC16F001014B518CEC16F0EE
:1013C800200E8CEC16F0200E8CEC16F0200E8CEC17
:1013D80016F0200E8CEC16F001014C518CEC16F036
:1013E80001014D518CEC16F0200E8CEC16F0200EFD
:1013F8008CEC16F0200E8CEC16F0200E8CEC16F00F
:1014080001014E518CEC16F001014F518CEC16F095
:10141800AF0E026E2E0E036EB6EC15F00101AA4B4C
:10142800AB2B3651AA5DAB51800A396E3751800A11
:101438003958D8A022EF0AF024EF0AF0ECEF08F0B0
:10144800000E786F030E776F000E396F000E386F3D
:1014580054EF01F0AB0E076E2F0E086E800E096E6A
:1014680073EC14F0C00E0F6E200E80EC16F0010124
:1014780059515A11D8B443EF0AF045EF0AF0D0EFAA
:101488000AF0020E2BEC16F0396E395001015F6F2D
:10149800606B5FC139F060C13AF0040E3B6E3A34BC
:1014A8003A3239323B2E53EF0AF0030E3914206FCB
:1014B800216B0F0E5F15226F236B010E2BEC16F0BC
:1014C800396E39500101616F626B61C139F062C1D7
:1014D8003AF0040E3B6E3A343A3239323B2E6FEF13
:1014E8000AF00F0E3914246F256B0F0E6115266F45
:1014F800276B000E2BEC16F0396E39500101636F23
:10150800646B63C139F064C13AF0040E3B6E3A343F
:101518003A3239323B2E8BEF0AF00F0E3914286F0E
:10152800296B0F0E63152A6F2B6B000E5A6F000E76
:10153800596F20C101F021C102F0000E046E0A0E9D
:10154800036E40EC16F0010122510124956F2351DE
:101558000220966F24C101F025C102F0000E046E2E
:101568000A0E036E40EC16F0010126510124976F14
:1015780027510220986F28C101F029C102F0000EFE
:10158800046E0A0E036E40EC16F001012A51012484
:10159800996F2B5102209A6F8551396E86513A6E98
:1015A800854B862B3ABEE4EF0AF0900E395C010EAB
:1015B8003A58D8B0E2EF0AF0E4EF0AF050EF0BF037
:1015C800C20E0F6E95C109F096C10AF0000E0C6E9E
:1015D8000A0E0B6E9AEC12F00950300F80EC16F0E0
:1015E800C10E0F6E95C101F096C102F0000E046E97
:1015F8000A0E036E38EC12F00150300F80EC16F032
:10160800C30E0F6E3A0E80EC16F0C50E0F6E97C122
:1016180009F098C10AF0000E0C6E0A0E0B6E9AECD7
:1016280012F00950300F80EC16F0C40E0F6E97C1FF
:1016380001F098C102F0000E046E0A0E036E38EC39
:1016480012F00150300F80EC16F0C60E0F6E3A0EF5
:1016580080EC16F0C80E0F6E99C109F09AC10AF015
:10166800000E0C6E0A0E0B6E9AEC12F00950300F39
:1016780080EC16F0C70E0F6E99C101F09AC102F006
:10168800000E046E0A0E036E38EC12F00150300F93
:1016980080EC16F0BEEF0BF086BF5CEF0BF0910EFE
:1016A800855D010E8659D8A05CEF0BF05EEF0BF05C
:1016B800ACEF0BF086BF6CEF0BF0200E855D030ED0
:1016C8008659D8B06AEF0BF06CEF0BF0ACEF0BF06B
:1016D800A305A411D8A473EF0BF075EF0BF081EFFD
:1016E8000BF0C20E0F6E200E80EC16F0C10E0F6EBE
:1016F800200E80EC16F0BEEF0BF0020EA319A41119
:10170800D8A489EF0BF08BEF0BF097EF0BF0C50E19
:101718000F6E200E80EC16F0C40E0F6E200E80ECBB
:1017280016F0BEEF0BF0A351A411D8A49EEF0BF056
:10173800A0EF0BF0BEEF0BF0C80E0F6E200E80EC82
:1017480016F0C70E0F6E200E80EC16F0BEEF0BF0F1
:10175800200E851907E1030E8619D8A4B6EF0BF001
:10176800B8EF0BF0BEEF0BF0000E866F000E856F22
:10177800BEEF0BF0000EC8EC13F0396E39500101C2
:10178800816F826B81298211D8B4CDEF0BF0CFEF36
:101798000BF099EF0CF07D4B7E2B81C165F182C176
:1017A80066F1E80E7D1907E1030E7E19D8A4DFEF74
:1017B8000BF0E1EF0BF054EF01F0000E7E6F000E1E
:1017C8007D6F050E81198211D8A4EDEF0BF0EFEFB4
:1017D8000BF085EF0CF095C109F096C10AF0000EE8
:1017E8000C6E0A0E0B6E9AEC12F009C039F00AC0A2
:1017F8003AF095C101F096C102F0000E046E0A0E8F
:10180800036E38EC12F00138F00B39100F6E020E2F
:1018180063EC16F097C109F098C10AF0000E0C6E3F
:101828000A0E0B6E9AEC12F009C039F00AC03AF0B1
:1018380097C101F098C102F0000E046E0A0E036E03
:1018480038EC12F00138F00B39100F6E010E63EC12
:1018580016F099C109F09AC10AF0000E0C6E0A0E32
:101868000B6E9AEC12F009C039F00AC03AF099C12F
:1018780001F09AC102F0000E046E0A0E036E38ECF5
:1018880012F00138F00B39100F6E000E63EC16F0F1
:10189800000E01015A6F010E596F000E016E010E04
:1018A80099EC15F0120E076E2F0E086E800E096E59
:1018B80073EC14F0130E01012D6F880E2C6F6DEF71
:1018C8000CF0340E076E2F0E086EC00E096E73EC06
:1018D80014F001012C07D8A02D072C2906E12D2989
:1018E800D8A479EF0CF07BEF0CF065EF0CF0000E4C
:1018F800786F030E776F000E156F010E146F54EF9B
:1019080001F0060E81198211D8A48DEF0CF08FEF2B
:101918000CF054EF01F0000E5A6F010E596F000ED3
:10192800786F030E776F54EF01F0E80E7D5D030EBC
:101938007E59D8B0A2EF0CF0A4EF0CF054EF01F0F0
:101948007D517E11D8B4ABEF0CF0ADEF0CF054EF35
:1019580001F0000E7E6F000E7D6F050E6519661191
:10196800D8A4B9EF0CF0BBEF0CF0CDEF0CF0010EE2
:10197800A325096E000EA4210A6E000E0C6E030E3C
:101988000B6E9AEC12F009C0A3F10AC0A4F154EF4F
:1019980001F0060E65196611D8A4D5EF0CF0D7EF43
:1019A8000CF054EF01F0A305A411D8A4DEEF0CF05D
:1019B800E0EF0CF0F2EF0CF0954B962B95C109F087
:1019C80096C10AF0000E0C6E180E0B6E9AEC12F00F
:1019D80009C095F10AC096F154EF01F0020EA3195F
:1019E800A411D8A4FAEF0CF0FCEF0CF00EEF0DF0F8
:1019F800974B982B97C109F098C10AF0000E0C6E0E
:101A08003C0E0B6E9AEC12F009C097F10AC098F1DF
:101A180054EF01F0A351A411D8A415EF0DF017EF5E
:101A28000DF054EF01F0994B9A2B99C109F09AC126
:101A38000AF0000E0C6E3C0E0B6E9AEC12F009C008
:101A480099F10AC09AF154EF01F09EBF37EF0DF0FB
:101A58009E5107E1040E9D5DD8B035EF0DF037EFCC
:101A68000DF08DEF0DF0B50E076E2E0E086E800E80
:101A7800096E73EC14F0C00E0F6E200E80EC16F099
:101A8800050E0101AC19AD11D8A44DEF0DF04FEFC3
:101A98000DF062EF0DF01B0E9D25D96E010E9E21F3
:101AA800DA6E310EDF6E9D51C40F0F6E2A0E80EC78
:101AB80016F001019D4B9E2B7CEF0DF0060EAC1924
:101AC800AD11D8A46AEF0DF06CEF0DF07CEF0DF0BE
:101AD8001B0E9D25D96E010E9E21DA6E300EDF6E2B
:101AE8009D51C40F0F6E2A0E80EC16F05DEF0DF0BD
:101AF800040E9D199E11D8A484EF0DF086EF0DF009
:101B080054EF01F0000E016E010E99EC15F054EF40
:101B180001F0A0BF9BEF0DF0A05107E1040E9F5DFF
:101B2800D8B099EF0DF09BEF0DF0F1EF0DF0B20E7C
:101B3800076E2E0E086E800E096E73EC14F0C00E40
:101B48000F6E200E80EC16F0050E0101AC19AD11D8
:101B5800D8A4B1EF0DF0B3EF0DF0C6EF0DF0500EB5
:101B68009F25D96E010EA021DA6E310EDF6E9F51CE
:101B7800C40F0F6E2A0E80EC16F001019F4BA02BAC
:101B8800E0EF0DF0060EAC19AD11D8A4CEEF0DF0B4
:101B9800D0EF0DF0E0EF0DF0500E9F25D96E010E3D
:101BA800A021DA6E300EDF6E9F51C40F0F6E2A0E21
:101BB80080EC16F0C1EF0DF0040E9F19A011D8A407
:101BC800E8EF0DF0EAEF0DF054EF01F0000E016EB2
:101BD800010E99EC15F054EF01F01B0E016E010E89
:101BE800026E500E036E010E046E3DEC14F00150AF
:101BF8000210D8A402EF0EF004EF0EF02AEF0EF058
:101C0800670E076E2F0E086E800E096E73EC14F0C7
:101C1800230E076E2F0E086EC00E096E73EC14F0BB
:101C280050C102F0C80E79EC15F051C102F0C90E8E
:101C380079EC15F052C102F0CA0E79EC15F053C1D7
:101C480002F0CB0E79EC15F03AEF0EF0670E076E46
:101C58002F0E086E800E096E73EC14F0BB0E076E23
:101C68002F0E086EC00E096E73EC14F001013A4B8A
:101C78003B2B2D0E3A1906E13B05D8A446EF0EF092
:101C880048EF0EF054EF01F0000E3B6F000E3A6F74
:101C9800000E9E6F000E9D6F000EA06F000E9F6FCE
:101CA800000E786F030E776F54EF01F077C139F0AB
:101CB80078C13AF03A50000AD8B465EF0EF054EF04
:101CC80001F03950010AD8B461EF02F0030AD8B420
:101CD8000BEF03F0010AD8B481EF04F0070AD8B477
:101CE800A0EF05F0010AD8B493EF07F0030AD8B4BF
:101CF80026EF08F0010AD8B42EEF0AF00F0AD8B47C
:101D080029EF0DF054EF01F007EF00F01950800BA8
:101D1800266E195019242D6E18AE95EF0EF097EF18
:101D28000EF098EF0EF02D802D50D8B49EEF0EF0E7
:101D3800A0EF0EF0B5EF0EF02D28D8A4A6EF0EF008
:101D4800A8EF0EF0B0EF0EF0000E166E000E176E34
:101D5800000E186E000E196E188E000E196EBDEF6B
:101D68000EF0000E166E000E176E000E186E000EA6
:101D7800196E1D50800B261A1D501D242E6E1CAE88
:101D8800C8EF0EF0CAEF0EF0CBEF0EF02E802E50FB
:101D9800D8B4D1EF0EF0D3EF0EF0E8EF0EF02E2806
:101DA800D8A4D9EF0EF0DBEF0EF0E3EF0EF0000E43
:101DB8001A6E000E1B6E000E1C6E000E1D6E1C8E21
:101DC800000E1D6EF0EF0EF0000E1A6E000E1B6E68
:101DD800000E1C6E000E1D6E1A501B101C101D10DC
:101DE800D8A4F9EF0EF0FBEF0EF013EF0FF0000E92
:101DF800166E000E176E000E186E000E196E800E0D
:101E080018127F0E19122650191216C016F017C094
:101E180017F018C018F019C019F056EF10F02D502F
:101E2800D8A419EF0FF01BEF0FF025EF0FF0000EFD
:101E3800166E000E176E000E186E000E196E56EF15
:101E480010F02E502DC01EF01F6A1E5E000E1F5A85
:101E58007F0E1E24276E000E1F20286E16C022F04B
:101E680017C023F018C024F019C025F0000E166E14
:101E7800000E176E000E186E000E196E000E296EF9
:101E8800000E2A6E000E2B6E000E2C6E000E2E6EAB
:101E980086EF0FF02E50D8B454EF0FF056EF0FF036
:101EA8006DEF0FF0D8902236233624362536D89099
:101EB80016361736183619362CAE65EF0FF067EF61
:101EC8000FF068EF0FF01680D89029362A362B3697
:101ED8002C361A50225C1B5023581C5024581D5075
:101EE8002558D8A07AEF0FF07CEF0FF085EF0FF0B0
:101EF8002C8C1A50225E1B50235A1C50245A1D50F9
:101F0800255A2E2A190E2E648CEF0FF08EEF0FF043
:101F18004EEF0FF02250231024102510D8B497EF5D
:101F28000FF099EF0FF0B1EF0FF02980B1EF0FF03C
:101F3800D89016361736183619362CAEA6EF0FF08D
:101F4800A8EF0FF0A9EF0FF01680D89029362A369F
:101F58002B362C362706D8A0280618AEB6EF0FF079
:101F6800B8EF0FF09CEF0FF0000E2E6E2CAEBFEF07
:101F78000FF0C1EF0FF0E5EF0FF0FF0E29141E6E02
:101F8800FF0E2A141F6EFF0E2B14206E7F0E2C14CA
:101F9800216E1E501F1020102110D8B4D6EF0FF05C
:101FA800D8EF0FF0DCEF0FF0010E2E6EE5EF0FF01B
:101FB80016A0E1EF0FF0E3EF0FF0E5EF0FF0D8EF29
:101FC8000FF02E50D8B4EBEF0FF0EDEF0FF011EF4C
:101FD80010F0010E1626000E17221822192219A039
:101FE800F8EF0FF0FAEF0FF011EF10F016C01EF037
:101FF80017C01FF018C020F019C021F02134213279
:1020080020321F321E321EC016F01FC017F020C02B
:1020180018F021C019F0274A282A28BE1CEF10F012
:10202800285008E12728D8A01CEF10F01EEF10F068
:1020380029EF10F0000E286E2768000E166E000EAD
:10204800176E000E186E000E196E28BE36EF10F0CF
:10205800285006E12704D8B034EF10F036EF10F01E
:1020680044EF10F0000E286E000E276E000E166E5C
:10207800000E176E000E186E000E196E000E266EFA
:1020880027C02DF02DA04BEF10F04DEF10F050EFC2
:1020980010F0188E51EF10F0189ED8902D30196E50
:1020A80007EF0FF01200106E1050D8B45EEF10F06A
:1020B80060EF10F082EF10F00BBE67EF10F065EFE5
:1020C80010F082EF10F008C00CF009C00DF00AC043
:1020D8000EF00BC00FF00C1E0D1E0E1E0F1E0C2A4C
:1020E800000E0D220E220F220CC012F00DC013F0AC
:1020F8000EC014F00FC015F08AEF10F008C012F0EF
:1021080009C013F00AC014F00BC015F008500910EC
:102118000A100B10D8A493EF10F095EF10F09FEF72
:1021280010F0000E086E000E096E000E0A6E000E0A
:102138000B6E30EF11F0960E116EA9EF10F0112A08
:10214800D8901532143213321232000E12140C6E5B
:10215800000E13140D6E000E14140E6EFE0E1514E0
:102168000F6E0C500D100E100F10D8A4BEEF10F00B
:10217800C0EF10F0A3EF10F0CEEF10F0112A010E0F
:102188001226000E132214221522D890153214326A
:1021980013321232000E12140C6E000E13140D6E50
:1021A800000E14140E6EFF0E15140F6E0C500D1049
:1021B8000E100F10D8A4E3EF10F0E5EF10F0C2EF07
:1021C80010F0EDEF10F01106D890123613361436D1
:1021D800153614BEF2EF10F0F4EF10F0FCEF10F02B
:1021E800020E1160FAEF10F0FCEF10F0E7EF10F0BC
:1021F80011B001EF11F003EF11F004EF11F0149E8C
:10220800D890113211C00CF00D6A0E6A0F6A0CC01A
:102218000FF00E6A0D6A0C6A0C5012120D50131250
:102228000E5014120F5015121050D8B41EEF11F0A2
:1022380020EF11F028EF11F00BBE27EF11F025EF7A
:1022480011F028EF11F0158E12C008F013C009F034
:1022580014C00AF015C00BF01200819A818C818E8F
:1022680081B239EF11F03BEF11F03EEF11F0010EA2
:10227800B4EF11F081B443EF11F045EF11F048EFDE
:1022880011F0040EB4EF11F081B64DEF11F04FEFDD
:1022980011F052EF11F0070EB4EF11F081B857EFBB
:1022A80011F059EF11F05CEF11F00A0EB4EF11F0D4
:1022B800818A819C818E81B264EF11F066EF11F002
:1022C80069EF11F0020EB4EF11F081B46EEF11F066
:1022D80070EF11F073EF11F0050EB4EF11F081B645
:1022E80078EF11F07AEF11F07DEF11F0080EB4EFEE
:1022F80011F081B882EF11F084EF11F087EF11F03F
:102308000B0EB4EF11F0818A818C819E819E81B27F
:1023180090EF11F092EF11F095EF11F0030EB4EF7A
:1023280011F081B49AEF11F09CEF11F09FEF11F0CA
:10233800060EB4EF11F081B6A4EF11F0A6EF11F07C
:10234800A9EF11F0090EB4EF11F081B8AEEF11F05A
:10235800B0EF11F0B3EF11F00C0EB4EF11F0FF0E67
:10236800120031343234386E3850D8A4BEEF11F030
:10237800C0EF11F0CAEF11F0000E2F6E000E306E94
:10238800000E316E000E326E37EF12F02FC033F0B0
:1023980030C034F031C035F032C036F0200EDAEFFC
:1023A80011F0D8903632353234323332E82ED5EF48
:1023B80011F03350376E318EFF0E2F16FF0E301688
:1023C800FF0E3116000E3216960E385E38BEF1EF4B
:1023D80011F0EFEF11F007EF12F03850800A970F65
:1023E800D8B0F9EF11F0FBEF11F0FDEF11F0C0EFED
:1023F80011F0D8903232313230322F32383EFDEF80
:1024080011F01FEF12F01F0E38640DEF12F00FEFEE
:1024180012F017EF12F0C0EF11F0D8902F363036C7
:102428003136323638063850D8A41DEF12F01FEF77
:1024380012F011EF12F03750D8B425EF12F027EF51
:1024480012F02FEF12F0321E311E301E2F6C000ECC
:102458003022312232222FC02FF030C030F031C06C
:1024680031F032C032F01200000E066E04BE41EFA9
:1024780012F03FEF12F047EF12F0036C041ED8B0D1
:10248800042A010E066E02BE4EEF12F04CEF12F057
:1024980054EF12F0016C021ED8B0022A010E061A7F
:1024A800000E086E000E076E03500410D8B45FEFDC
:1024B80012F061EF12F089EF12F0010E056E69EF6C
:1024C80012F0D89003360436052A04AE6EEF12F0E7
:1024D80070EF12F065EF12F0D89007360836035007
:1024E800015C04500258D8A07CEF12F07EEF12F085
:1024F80083EF12F00350015E0450025A0780D8900F
:1025080004320332052E70EF12F00650D8B48FEF64
:1025180012F091EF12F095EF12F0076C081ED8B088
:10252800082A07C001F008C002F01200000E0E6E63
:102538000ABEA3EF12F0A1EF12F0A9EF12F0096C96
:102548000A1ED8B00A2A010E0E6E0CBEB0EF12F0A9
:10255800AEEF12F0B4EF12F00B6C0C1ED8B00C2AD0
:102568000B500C10D8B4BBEF12F0BDEF12F0E1EF36
:1025780012F0010E0D6EC5EF12F0D8900B360C3626
:102588000D2A0CAECAEF12F0CCEF12F0C1EF12F028
:102598000B50095C0C500A58D8A0D5EF12F0D7EFB1
:1025A80012F0DBEF12F00B50095E0C500A5AD8906B
:1025B8000C320B320D2ECCEF12F00E50D8B4E7EFE0
:1025C80012F0E9EF12F0EDEF12F0096C0A1ED8B024
:1025D8000A2A09C009F00AC00AF01200000E956E16
:1025E8009450F80B946E8290C30E036ECD0EE82EB5
:1025F800FED7032EFCD70000000E016E330E99ECB7
:1026080015F01B0E036E9E0EE82EFED7032EFCD788
:1026180000D0000E016E330E99EC15F0A60EE82ED0
:10262800FED700D0000E016E330E99EC15F000D0E5
:1026380000D00000000E016E020E99EC15F0A60EF7
:10264800E82EFED700D0000E016E380E99EC15F07A
:10265800A60EE82EFED700D0000E016E010E99ECF2
:1026680015F0040E036E3E0EE82EFED7032EFCD79F
:10267800000E016E0C0E99EC15F0A60EE82EFED792
:1026880000D01200A20EF66E2B0EF76E000EF86E3A
:1026980001EEB0F010EE30F00900F5CFEEFFE55096
:1026A800E150FAE1520EF66E290EF76E000EF86E42
:1026B80000EE60F010EE64F00900F5CFEEFFE55093
:1026C800E150FAE1DE0EF66E2D0EF76E000EF86E92
:1026D8000900F5CF5AF00900F5CF5BF00900F5CFF6
:1026E8005CF001EEE0F0170EEE6AE806FDE100EEA0
:1026F8003CF01E0EEE6AE806FDE15D905D92000E6C
:10270800F86E000109EF00F0020E2BEC16F04B6E8C
:10271800010E2BEC16F04C6E000E2BEC16F04D6EE5
:102728004BAC99EF13F09BEF13F0A6EF13F04B3877
:102738000F0B010B300F516E4B500F0B300F526EB9
:10274800AFEF13F04B380F0B030B300F516E4B509C
:102758000F0B300F526E3A0E536E4C380F0B0F0B97
:10276800300F546E4C500F0B300F556E3A0E566E9C
:102778004D380F0B0F0B300F576E4D500F0B300F9E
:10278800586E000E596E1200016E0104D8A4CFEFE6
:1027980013F0D1EF13F0F5EF13F031EC11F0506EA8
:1027A8005028D8B4DAEF13F0DCEF13F0E9EF13F0A8
:1027B8005C50D8B4E2EF13F0E4EF13F0E9EF13F054
:1027C800000E5C6E505002EF14F05028D8A4EFEFC2
:1027D80013F0F1EF13F001EF14F0010E5C6E01EF4E
:1027E80014F00150D8A4FBEF13F0FDEF13F001EF44
:1027F80014F031EC11F002EF14F0FF0E1200000E8D
:10280800066E000E056E03500410D8B40EEF14F0D7
:1028180010EF14F038EF14F0010E076E18EF14F0F3
:10282800D89003360436072A04AE1DEF14F01FEFC4
:1028380014F014EF14F0D890053606360350015CF6
:1028480004500258D8A02BEF14F02DEF14F032EFFB
:1028580014F00350015E0450025A0580D8900432E7
:102868000332072E1FEF14F005C001F006C002F076
:10287800120043EF14F0014A022A034A042A03C053
:10288800D9FF04C0DAFF01C0E1FF02C0E2FFDE5059
:10289800E618D8A452EF14F054EF14F060EF14F0D7
:1028A80001C0D9FF02C0DAFFDF50D8A45EEF14F0F0
:1028B80060EF14F03FEF14F001C0D9FF02C0DAFF57
:1028C800DF50056E03C0D9FF04C0DAFFDF50066E83
:1028D8000650055C016E026AD8A002061200000EBE
:1028E800016E095099EC15F090EF14F0010E016E8D
:1028F80007C0F6FF08C0F7FFF86A050EF76403D0B3
:102908000800F55005D0F6CFE9FFF7CFEAFFEF5002
:1029180099EC15F0074A082A07C0F6FF08C0F7FF28
:10292800F86A050EF76403D00800F55005D0F6CF15
:10293800E9FFF7CFEAFFEF500009D8A4A6EF14F09B
:10294800A8EF14F07AEF14F0120056696577206C3E
:102958006F67202020202020000000000000436C2A
:10296800656172206C6F67202020202020200000E5
:102978000000446F776E6C6F6164206C6F67202075
:102988002020200000005365742074696D652020A4
:10299800202020200000000000004368616E676569
:1029A8002070617373776F72642020202020035099
:1029B8000410D8B4E2EF14F0E4EF14F008EF15F0C7
:1029C800010E056EECEF14F0D89003360436052A94
:1029D80004AEF1EF14F0F3EF14F0E8EF14F0035045
:1029E800015C04500258D8A0FCEF14F0FEEF14F07C
:1029F80002EF15F00350015E0450025AD8900432D9
:102A08000332052EF3EF14F001C001F002C002F00A
:102A180012000600F2A413EF15F015EF15F032EFCF
:102A280015F0080ED624D66E000ED720D76E4E4A63
:102A38004F2A210E4E1807E14E0E4F18D8A427EF43
:102A480015F029EF15F031EF15F0000E4F6E000E5E
:102A58004E6E0101BA07D8A0BB07F2945D9211002F
:102A6800076E07C003F0D8900336D8900336C250DB
:102A7800C30B0310C26EC282C2B245EF15F047EF16
:102A880015F040EF15F0C350C4CF03F0046A03C03B
:102A980004F0036A0310056E0450066E05C001F0C9
:102AA80006C002F01200000E2BEC16F0116E115049
:102AB80080090F6E000E63EC16F0020E2BEC16F078
:102AC800000E0F6E020E63EC16F0930E0F6E070EDB
:102AD80063EC16F0000E2BEC16F0116E11507F0B04
:102AE8000F6E000E63EC16F01200056EE0EC16F0A7
:102AF800A00ED0EC16F00550D0EC16F00250D0EC39
:102B080016F0DCEC16F00B0E046EB80E036E03061E
:102B1800D8A00406032806E10428D8A496EF15F0E7
:102B280098EF15F08BEF15F01200026E01B09FEFD1
:102B380015F0A2EF15F08282A3EF15F0829202C081
:102B480083FF82848294958E82808292828482948A
:102B580083BEB1EF15F0B3EF15F0AAEF15F0829030
:102B6800959E1200C2EF15F002C0F6FF03C0F7FFF2
:102B78000800F5508CEC16F0024A032A02C0F6FF52
:102B880003C0F7FF0800F5500009D8A4CEEF15F0F0
:102B9800D0EF15F0B8EF15F0120057454C434F4DE4
:102BA8004500000078004F4E00475200474E00474E
:102BB8003100473200473300473400432000444C7B
:102BC80000434C00535400435000026E02C0A9FF5A
:102BD80001C0A8FFA69EA69CA684F29E550EA76ECD
:102BE800AA0EA76EA682F28EA1A8FDEF15F0FFEF40
:102BF80015F0F8EF15F0A1981200026EE0EC16F04F
:102C0800A00ED0EC16F00250D0EC16F0E4EC16F062
:102C1800A10ED0EC16F0D6EC16F0036EDCEC16F034
:102C280003501200948E949CAC9CAC8AAC98AC96E1
:102C3800AC84AB8EAB9CAB88B89EB896B892B89073
:102C4800810EAF6E9D889E989D8A9E9A1200026E94
:102C5800E0EC16F0D00ED0EC16F00250D0EC16F0E6
:102C6800E4EC16F0D10ED0EC16F0D6EC16F0036EAC
:102C7800DCEC16F00350120001500302F3CF05F00C
:102C8800F4CF06F001500402F35006260250030266
:102C9800F350062605C001F006C002F01200C08EEF
:102CA800C08AC098C096C090C082C094C292C19A8F
:102CB800C198000EC46E000EC36EC2801200106E62
:102CC800E0EC16F0D00ED0EC16F01050D0EC16F068
:102CD8000F50D0EC16F0DCEC16F01200F2EC12F00B
:102CE80053EC16F0B6EC16F097EC16F0F29EA2EC48
:102CF80016F057EC15F01200106E000E016E0F5012
:102D080099EC15F0010E016E105099EC15F01200B7
:102D1800016E9EA892EF16F094EF16F08DEF16F064
:102D280001C0ADFF1200D58CD59AD58ED586000E80
:102D3800D76E060ED66EF294F29A12009486948894
:102D4800280EC66E310EC86EC79CC78E9E96A19679
:102D58001200016E01C0A9FFA694A69EA69CA6809B
:102D6800A85012000F0EC16E1E0E936EF19E815078
:102D7800E009816E12009EA6C4EF16F0C6EF16F0A9
:102D8800BFEF16F09E961200510E076E086AC00E2D
:102D9800096E73EC14F01200016E01C0C9FFBFEC9C
:102DA80016F01200E8EC16F0ECEC16F0C950120020
:102DB800C584BFEC16F01200C580BFEC16F01200F7
:102DC800C582BFEC16F01200C586BFEC16F01200E3
:092DD800C58AC588120001000142
:102E940000532E4E4F20202054494D452020202001
:102EA40020204556202020202053500A0D00726512
:102EB4005F656E7472206E65772070617373776FCF
:102EC400726400202020444F574E4C4F4144204C04
:102ED4004F472020202000202020205355434345E5
:102EE400535346554C4C2020202000535543434512
:102EF400535346554C4C202E2E2E2E2E002020208F
:102F040020202020202020202020202020002020DD
:102F14005345542054494D45202020202020002092
:102F2400205355434345535346554C4C20202000D1
:102F34002020205355434345535346554C4C2020A1
:102F4400002057524F4E472050415353574F52443D
:102F5400200020454E5445522050415353574F5260
:102F640044200050415353574F5244204348414E4C
:102F740047452000434C454152204C4F4720202ECA
:102F84002E2E2E2E0076696577206C6F672E2E2EDE
:102F94003E3E3E3E3E00594F552041524520424C54
:102FA4004F434B45443E0054494D45202848483A38
:102FB4004D4D3A5353290020204641494C55524522
:102FC40020202000415454454D5054204C45465433
:102FD400002054494D452020202000574149542DBC
:102FE4002D3E20002073656320004F4E20200045B5
:0C2FF40056202000535020002A2000002E
:020000040020DA
:08000000FFFFFFFFFFFFFFFF00
:020000040030CA
:0E000000FF071F1FFF8285FF0FC00FE00F409C
:00000001FF
